{
  "address": "0xFf030F034A41ea5dfC75AC8fD9AA7aeb077c1419",
  "_format": "hh-sol-artifact-1",
  "contractName": "EthBridge",
  "sourceName": "contracts/EthBridge.sol",
  "abi": [
    {
      "anonymous": false,
      "inputs": [
        {
          "indexed": true,
          "internalType": "address",
          "name": "_sender",
          "type": "address"
        },
        {
          "indexed": false,
          "internalType": "uint256",
          "name": "amount",
          "type": "uint256"
        },
        {
          "indexed": false,
          "internalType": "uint256",
          "name": "nonce",
          "type": "uint256"
        },
        {
          "indexed": false,
          "internalType": "string",
          "name": "deroAddress",
          "type": "string"
        }
      ],
      "name": "Deposit",
      "type": "event"
    },
    {
      "anonymous": false,
      "inputs": [
        {
          "indexed": true,
          "internalType": "address",
          "name": "previousOwner",
          "type": "address"
        },
        {
          "indexed": true,
          "internalType": "address",
          "name": "newOwner",
          "type": "address"
        }
      ],
      "name": "OwnershipTransferred",
      "type": "event"
    },
    {
      "anonymous": false,
      "inputs": [
        {
          "indexed": true,
          "internalType": "address",
          "name": "_sender",
          "type": "address"
        },
        {
          "indexed": false,
          "internalType": "uint256",
          "name": "amount",
          "type": "uint256"
        },
        {
          "indexed": false,
          "internalType": "string",
          "name": "deroAddress",
          "type": "string"
        }
      ],
      "name": "WithdrawalProcessed",
      "type": "event"
    },
    {
      "inputs": [
        {
          "internalType": "string",
          "name": "deroAddress",
          "type": "string"
        }
      ],
      "name": "changeAddressMap",
      "outputs": [],
      "stateMutability": "nonpayable",
      "type": "function"
    },
    {
      "inputs": [],
      "name": "fee",
      "outputs": [
        {
          "internalType": "uint256",
          "name": "",
          "type": "uint256"
        }
      ],
      "stateMutability": "view",
      "type": "function"
    },
    {
      "inputs": [
        {
          "internalType": "address",
          "name": "_address",
          "type": "address"
        }
      ],
      "name": "getDeroAddressOf",
      "outputs": [
        {
          "internalType": "string",
          "name": "",
          "type": "string"
        }
      ],
      "stateMutability": "view",
      "type": "function"
    },
    {
      "inputs": [
        {
          "internalType": "string",
          "name": "deroAddress",
          "type": "string"
        }
      ],
      "name": "getEthAddressOf",
      "outputs": [
        {
          "internalType": "address",
          "name": "",
          "type": "address"
        }
      ],
      "stateMutability": "view",
      "type": "function"
    },
    {
      "inputs": [
        {
          "internalType": "uint256",
          "name": "_amount",
          "type": "uint256"
        }
      ],
      "name": "getFee",
      "outputs": [
        {
          "internalType": "uint256",
          "name": "",
          "type": "uint256"
        }
      ],
      "stateMutability": "view",
      "type": "function"
    },
    {
      "inputs": [
        {
          "internalType": "address",
          "name": "_tokenAddress",
          "type": "address"
        },
        {
          "internalType": "uint256",
          "name": "_amount",
          "type": "uint256"
        },
        {
          "internalType": "string",
          "name": "deroAddress",
          "type": "string"
        }
      ],
      "name": "lockTokens",
      "outputs": [
        {
          "internalType": "uint256",
          "name": "",
          "type": "uint256"
        }
      ],
      "stateMutability": "payable",
      "type": "function"
    },
    {
      "inputs": [],
      "name": "owner",
      "outputs": [
        {
          "internalType": "address",
          "name": "",
          "type": "address"
        }
      ],
      "stateMutability": "view",
      "type": "function"
    },
    {
      "inputs": [
        {
          "internalType": "address",
          "name": "",
          "type": "address"
        },
        {
          "internalType": "uint256",
          "name": "",
          "type": "uint256"
        }
      ],
      "name": "processedNonces",
      "outputs": [
        {
          "internalType": "bool",
          "name": "",
          "type": "bool"
        }
      ],
      "stateMutability": "view",
      "type": "function"
    },
    {
      "inputs": [
        {
          "internalType": "address",
          "name": "_tokenAddress",
          "type": "address"
        },
        {
          "internalType": "uint256",
          "name": "_amount",
          "type": "uint256"
        },
        {
          "internalType": "string",
          "name": "deroAddress",
          "type": "string"
        }
      ],
      "name": "releaseTokens",
      "outputs": [
        {
          "internalType": "uint256",
          "name": "",
          "type": "uint256"
        }
      ],
      "stateMutability": "nonpayable",
      "type": "function"
    },
    {
      "inputs": [],
      "name": "renounceOwnership",
      "outputs": [],
      "stateMutability": "nonpayable",
      "type": "function"
    },
    {
      "inputs": [
        {
          "internalType": "uint256",
          "name": "_feeRate",
          "type": "uint256"
        }
      ],
      "name": "setFee",
      "outputs": [],
      "stateMutability": "nonpayable",
      "type": "function"
    },
    {
      "inputs": [
        {
          "internalType": "address",
          "name": "newOwner",
          "type": "address"
        }
      ],
      "name": "transferOwnership",
      "outputs": [],
      "stateMutability": "nonpayable",
      "type": "function"
    }
  ],
  "bytecode": "0x6080604052600060035534801561001557600080fd5b5061003261002761003760201b60201c565b61003f60201b60201c565b610103565b600033905090565b60008060009054906101000a900473ffffffffffffffffffffffffffffffffffffffff169050816000806101000a81548173ffffffffffffffffffffffffffffffffffffffff021916908373ffffffffffffffffffffffffffffffffffffffff1602179055508173ffffffffffffffffffffffffffffffffffffffff168173ffffffffffffffffffffffffffffffffffffffff167f8be0079c531659141344cd1fd0a4f28419497f9722a3daafe3b4186f6b6457e060405160405180910390a35050565b611bff806101126000396000f3fe6080604052600436106100a75760003560e01c8063cbcac83c11610064578063cbcac83c146101ce578063ddca3f43146101f7578063e0353eda14610222578063f2fde38b14610252578063f5e51fec1461027b578063fcee45f4146102b8576100a7565b806345baf0c4146100ac57806369fe0e2d146100e9578063715018a6146101125780637cc70240146101295780638da5cb5b14610166578063b13996c614610191575b600080fd5b3480156100b857600080fd5b506100d360048036038101906100ce9190610f9e565b6102f5565b6040516100e09190611064565b60405180910390f35b3480156100f557600080fd5b50610110600480360381019061010b91906110bc565b6103ce565b005b34801561011e57600080fd5b506101276103e0565b005b34801561013557600080fd5b50610150600480360381019061014b91906110e9565b6103f4565b60405161015d9190611144565b60405180910390f35b34801561017257600080fd5b5061017b610423565b604051610188919061116e565b60405180910390f35b34801561019d57600080fd5b506101b860048036038101906101b391906112be565b61044c565b6040516101c5919061133c565b60405180910390f35b3480156101da57600080fd5b506101f560048036038101906101f09190611357565b61065e565b005b34801561020357600080fd5b5061020c610712565b604051610219919061133c565b60405180910390f35b61023c600480360381019061023791906112be565b610718565b604051610249919061133c565b60405180910390f35b34801561025e57600080fd5b5061027960048036038101906102749190610f9e565b610bae565b005b34801561028757600080fd5b506102a2600480360381019061029d9190611357565b610c32565b6040516102af919061116e565b60405180910390f35b3480156102c457600080fd5b506102df60048036038101906102da91906110bc565b610c7a565b6040516102ec919061133c565b60405180910390f35b60606102ff610c9e565b600560008373ffffffffffffffffffffffffffffffffffffffff1673ffffffffffffffffffffffffffffffffffffffff1681526020019081526020016000208054610349906113cf565b80601f0160208091040260200160405190810160405280929190818152602001828054610375906113cf565b80156103c25780601f10610397576101008083540402835291602001916103c2565b820191906000526020600020905b8154815290600101906020018083116103a557829003601f168201915b50505050509050919050565b6103d6610c9e565b8060038190555050565b6103e8610c9e565b6103f26000610d1c565b565b60046020528160005260406000206020528060005260406000206000915091509054906101000a900460ff1681565b60008060009054906101000a900473ffffffffffffffffffffffffffffffffffffffff16905090565b6000610456610c9e565b600084905061046485610de0565b61046d57600080fd5b60006104f68273ffffffffffffffffffffffffffffffffffffffff1663313ce5676040518163ffffffff1660e01b815260040160206040518083038186803b1580156104b857600080fd5b505afa1580156104cc573d6000803e3d6000fd5b505050506040513d601f19601f820116820180604052508101906104f0919061143a565b86610deb565b90508173ffffffffffffffffffffffffffffffffffffffff1663a9059cbb60068660405161052491906114a3565b908152602001604051809103902060009054906101000a900473ffffffffffffffffffffffffffffffffffffffff16836040518363ffffffff1660e01b81526004016105719291906114ba565b602060405180830381600087803b15801561058b57600080fd5b505af115801561059f573d6000803e3d6000fd5b505050506040513d601f19601f820116820180604052508101906105c3919061150f565b506006846040516105d491906114a3565b908152602001604051809103902060009054906101000a900473ffffffffffffffffffffffffffffffffffffffff1673ffffffffffffffffffffffffffffffffffffffff167f60a64b55a87ddc551866192a09b7031fe80dd6e57b58adefdb373a9f7f055f33828660405161064a92919061153c565b60405180910390a280925050509392505050565b80600560003373ffffffffffffffffffffffffffffffffffffffff1673ffffffffffffffffffffffffffffffffffffffff16815260200190815260200160002090805190602001906106b1929190610e89565b50336006826040516106c391906114a3565b908152602001604051809103902060006101000a81548173ffffffffffffffffffffffffffffffffffffffff021916908373ffffffffffffffffffffffffffffffffffffffff16021790555050565b60035481565b600080849050600073ffffffffffffffffffffffffffffffffffffffff163373ffffffffffffffffffffffffffffffffffffffff16141561078e576040517f08c379a0000000000000000000000000000000000000000000000000000000008152600401610785906115b8565b60405180910390fd5b600084116107d1576040517f08c379a00000000000000000000000000000000000000000000000000000000081526004016107c890611624565b60405180910390fd5b838173ffffffffffffffffffffffffffffffffffffffff1663dd62ed3e33306040518363ffffffff1660e01b815260040161080d929190611644565b60206040518083038186803b15801561082557600080fd5b505afa158015610839573d6000803e3d6000fd5b505050506040513d601f19601f8201168201806040525081019061085d9190611682565b101561089e576040517f08c379a0000000000000000000000000000000000000000000000000000000008152600401610895906116fb565b60405180910390fd5b6108a785610de0565b6108e6576040517f08c379a00000000000000000000000000000000000000000000000000000000081526004016108dd90611767565b60405180910390fd5b6108f06002610e1a565b6001600460003373ffffffffffffffffffffffffffffffffffffffff1673ffffffffffffffffffffffffffffffffffffffff168152602001908152602001600020600061093d6002610e30565b815260200190815260200160002060006101000a81548160ff02191690831515021790555082600560003373ffffffffffffffffffffffffffffffffffffffff1673ffffffffffffffffffffffffffffffffffffffff16815260200190815260200160002090805190602001906109b5929190610e89565b50336006846040516109c791906114a3565b908152602001604051809103902060006101000a81548173ffffffffffffffffffffffffffffffffffffffff021916908373ffffffffffffffffffffffffffffffffffffffff1602179055508073ffffffffffffffffffffffffffffffffffffffff166323b872dd3330876040518463ffffffff1660e01b8152600401610a5093929190611787565b602060405180830381600087803b158015610a6a57600080fd5b505af1158015610a7e573d6000803e3d6000fd5b505050506040513d601f19601f82011682018060405250810190610aa2919061150f565b506000610aae85610c7a565b85610ab991906117ed565b90506000610b448373ffffffffffffffffffffffffffffffffffffffff1663313ce5676040518163ffffffff1660e01b815260040160206040518083038186803b158015610b0657600080fd5b505afa158015610b1a573d6000803e3d6000fd5b505050506040513d601f19601f82011682018060405250810190610b3e919061143a565b83610e3e565b90503373ffffffffffffffffffffffffffffffffffffffff167fc3e7b26244f37ad8e358393dbc82881ada73f132a6b54c7624e72a6792f7976882610b896002610e30565b88604051610b9993929190611821565b60405180910390a28193505050509392505050565b610bb6610c9e565b600073ffffffffffffffffffffffffffffffffffffffff168173ffffffffffffffffffffffffffffffffffffffff161415610c26576040517f08c379a0000000000000000000000000000000000000000000000000000000008152600401610c1d906118d1565b60405180910390fd5b610c2f81610d1c565b50565b6000600682604051610c4491906114a3565b908152602001604051809103902060009054906101000a900473ffffffffffffffffffffffffffffffffffffffff169050919050565b60006103e860035483610c8d91906118f1565b610c97919061197a565b9050919050565b610ca6610e81565b73ffffffffffffffffffffffffffffffffffffffff16610cc4610423565b73ffffffffffffffffffffffffffffffffffffffff1614610d1a576040517f08c379a0000000000000000000000000000000000000000000000000000000008152600401610d11906119f7565b60405180910390fd5b565b60008060009054906101000a900473ffffffffffffffffffffffffffffffffffffffff169050816000806101000a81548173ffffffffffffffffffffffffffffffffffffffff021916908373ffffffffffffffffffffffffffffffffffffffff1602179055508173ffffffffffffffffffffffffffffffffffffffff168173ffffffffffffffffffffffffffffffffffffffff167f8be0079c531659141344cd1fd0a4f28419497f9722a3daafe3b4186f6b6457e060405160405180910390a35050565b600060019050919050565b600060088360ff161115610e10576305f5e10082610e0991906118f1565b9050610e14565b8190505b92915050565b6001816000016000828254019250508190555050565b600081600001549050919050565b600060088360ff161115610e7757600883610e599190611a17565b600a610e659190611b7e565b82610e70919061197a565b9050610e7b565b8190505b92915050565b600033905090565b828054610e95906113cf565b90600052602060002090601f016020900481019282610eb75760008555610efe565b82601f10610ed057805160ff1916838001178555610efe565b82800160010185558215610efe579182015b82811115610efd578251825591602001919060010190610ee2565b5b509050610f0b9190610f0f565b5090565b5b80821115610f28576000816000905550600101610f10565b5090565b6000604051905090565b600080fd5b600080fd5b600073ffffffffffffffffffffffffffffffffffffffff82169050919050565b6000610f6b82610f40565b9050919050565b610f7b81610f60565b8114610f8657600080fd5b50565b600081359050610f9881610f72565b92915050565b600060208284031215610fb457610fb3610f36565b5b6000610fc284828501610f89565b91505092915050565b600081519050919050565b600082825260208201905092915050565b60005b83811015611005578082015181840152602081019050610fea565b83811115611014576000848401525b50505050565b6000601f19601f8301169050919050565b600061103682610fcb565b6110408185610fd6565b9350611050818560208601610fe7565b6110598161101a565b840191505092915050565b6000602082019050818103600083015261107e818461102b565b905092915050565b6000819050919050565b61109981611086565b81146110a457600080fd5b50565b6000813590506110b681611090565b92915050565b6000602082840312156110d2576110d1610f36565b5b60006110e0848285016110a7565b91505092915050565b60008060408385031215611100576110ff610f36565b5b600061110e85828601610f89565b925050602061111f858286016110a7565b9150509250929050565b60008115159050919050565b61113e81611129565b82525050565b60006020820190506111596000830184611135565b92915050565b61116881610f60565b82525050565b6000602082019050611183600083018461115f565b92915050565b600080fd5b600080fd5b7f4e487b7100000000000000000000000000000000000000000000000000000000600052604160045260246000fd5b6111cb8261101a565b810181811067ffffffffffffffff821117156111ea576111e9611193565b5b80604052505050565b60006111fd610f2c565b905061120982826111c2565b919050565b600067ffffffffffffffff82111561122957611228611193565b5b6112328261101a565b9050602081019050919050565b82818337600083830152505050565b600061126161125c8461120e565b6111f3565b90508281526020810184848401111561127d5761127c61118e565b5b61128884828561123f565b509392505050565b600082601f8301126112a5576112a4611189565b5b81356112b584826020860161124e565b91505092915050565b6000806000606084860312156112d7576112d6610f36565b5b60006112e586828701610f89565b93505060206112f6868287016110a7565b925050604084013567ffffffffffffffff81111561131757611316610f3b565b5b61132386828701611290565b9150509250925092565b61133681611086565b82525050565b6000602082019050611351600083018461132d565b92915050565b60006020828403121561136d5761136c610f36565b5b600082013567ffffffffffffffff81111561138b5761138a610f3b565b5b61139784828501611290565b91505092915050565b7f4e487b7100000000000000000000000000000000000000000000000000000000600052602260045260246000fd5b600060028204905060018216806113e757607f821691505b602082108114156113fb576113fa6113a0565b5b50919050565b600060ff82169050919050565b61141781611401565b811461142257600080fd5b50565b6000815190506114348161140e565b92915050565b6000602082840312156114505761144f610f36565b5b600061145e84828501611425565b91505092915050565b600081905092915050565b600061147d82610fcb565b6114878185611467565b9350611497818560208601610fe7565b80840191505092915050565b60006114af8284611472565b915081905092915050565b60006040820190506114cf600083018561115f565b6114dc602083018461132d565b9392505050565b6114ec81611129565b81146114f757600080fd5b50565b600081519050611509816114e3565b92915050565b60006020828403121561152557611524610f36565b5b6000611533848285016114fa565b91505092915050565b6000604082019050611551600083018561132d565b8181036020830152611563818461102b565b90509392505050565b7f496e76616c696420616464726573730000000000000000000000000000000000600082015250565b60006115a2600f83610fd6565b91506115ad8261156c565b602082019050919050565b600060208201905081810360008301526115d181611595565b9050919050565b7f416d6f756e74206e6f7420656e6f756768000000000000000000000000000000600082015250565b600061160e601183610fd6565b9150611619826115d8565b602082019050919050565b6000602082019050818103600083015261163d81611601565b9050919050565b6000604082019050611659600083018561115f565b611666602083018461115f565b9392505050565b60008151905061167c81611090565b92915050565b60006020828403121561169857611697610f36565b5b60006116a68482850161166d565b91505092915050565b7f417070726f766520746f6b656e73206669727374000000000000000000000000600082015250565b60006116e5601483610fd6565b91506116f0826116af565b602082019050919050565b60006020820190508181036000830152611714816116d8565b9050919050565b7f496e76616c696420746f6b656e20616464726573730000000000000000000000600082015250565b6000611751601583610fd6565b915061175c8261171b565b602082019050919050565b6000602082019050818103600083015261178081611744565b9050919050565b600060608201905061179c600083018661115f565b6117a9602083018561115f565b6117b6604083018461132d565b949350505050565b7f4e487b7100000000000000000000000000000000000000000000000000000000600052601160045260246000fd5b60006117f882611086565b915061180383611086565b925082821015611816576118156117be565b5b828203905092915050565b6000606082019050611836600083018661132d565b611843602083018561132d565b8181036040830152611855818461102b565b9050949350505050565b7f4f776e61626c653a206e6577206f776e657220697320746865207a65726f206160008201527f6464726573730000000000000000000000000000000000000000000000000000602082015250565b60006118bb602683610fd6565b91506118c68261185f565b604082019050919050565b600060208201905081810360008301526118ea816118ae565b9050919050565b60006118fc82611086565b915061190783611086565b9250817fffffffffffffffffffffffffffffffffffffffffffffffffffffffffffffffff04831182151516156119405761193f6117be565b5b828202905092915050565b7f4e487b7100000000000000000000000000000000000000000000000000000000600052601260045260246000fd5b600061198582611086565b915061199083611086565b9250826119a05761199f61194b565b5b828204905092915050565b7f4f776e61626c653a2063616c6c6572206973206e6f7420746865206f776e6572600082015250565b60006119e1602083610fd6565b91506119ec826119ab565b602082019050919050565b60006020820190508181036000830152611a10816119d4565b9050919050565b6000611a2282611401565b9150611a2d83611401565b925082821015611a4057611a3f6117be565b5b828203905092915050565b60008160011c9050919050565b6000808291508390505b6001851115611aa257808604811115611a7e57611a7d6117be565b5b6001851615611a8d5780820291505b8081029050611a9b85611a4b565b9450611a62565b94509492505050565b600082611abb5760019050611b77565b81611ac95760009050611b77565b8160018114611adf5760028114611ae957611b18565b6001915050611b77565b60ff841115611afb57611afa6117be565b5b8360020a915084821115611b1257611b116117be565b5b50611b77565b5060208310610133831016604e8410600b8410161715611b4d5782820a905083811115611b4857611b476117be565b5b611b77565b611b5a8484846001611a58565b92509050818404811115611b7157611b706117be565b5b81810290505b9392505050565b6000611b8982611086565b9150611b9483611401565b9250611bc17fffffffffffffffffffffffffffffffffffffffffffffffffffffffffffffffff8484611aab565b90509291505056fea26469706673582212204ace6cc84992685865617f644e6c0dd0197d59dc606c60c12d37d685639e8f2c64736f6c63430008090033",
  "linkReferences": {},
  "deployedLinkReferences": {}
}