{
  "address": "0x25ffD8ccF87988f8baaC1256b6891BCda4CeFadd",
  "_format": "hh-sol-artifact-1",
  "contractName": "EthBridge",
  "sourceName": "contracts/EthBridge.sol",
  "abi": [
    {
      "inputs": [
        {
          "internalType": "address",
          "name": "_tokenAddress",
          "type": "address"
        }
      ],
      "stateMutability": "nonpayable",
      "type": "constructor"
    },
    {
      "anonymous": false,
      "inputs": [
        {
          "indexed": true,
          "internalType": "address",
          "name": "_sender",
          "type": "address"
        },
        {
          "indexed": false,
          "internalType": "uint256",
          "name": "amount",
          "type": "uint256"
        },
        {
          "indexed": false,
          "internalType": "uint256",
          "name": "nonce",
          "type": "uint256"
        },
        {
          "indexed": false,
          "internalType": "string",
          "name": "deroAddress",
          "type": "string"
        }
      ],
      "name": "Deposit",
      "type": "event"
    },
    {
      "anonymous": false,
      "inputs": [
        {
          "indexed": true,
          "internalType": "address",
          "name": "previousOwner",
          "type": "address"
        },
        {
          "indexed": true,
          "internalType": "address",
          "name": "newOwner",
          "type": "address"
        }
      ],
      "name": "OwnershipTransferred",
      "type": "event"
    },
    {
      "anonymous": false,
      "inputs": [
        {
          "indexed": true,
          "internalType": "address",
          "name": "_sender",
          "type": "address"
        },
        {
          "indexed": false,
          "internalType": "uint256",
          "name": "amount",
          "type": "uint256"
        },
        {
          "indexed": false,
          "internalType": "string",
          "name": "deroAddress",
          "type": "string"
        }
      ],
      "name": "WithdrawalProcessed",
      "type": "event"
    },
    {
      "inputs": [
        {
          "internalType": "uint256",
          "name": "amount",
          "type": "uint256"
        },
        {
          "internalType": "string",
          "name": "deroAddress",
          "type": "string"
        }
      ],
      "name": "deposit",
      "outputs": [],
      "stateMutability": "payable",
      "type": "function"
    },
    {
      "inputs": [],
      "name": "owner",
      "outputs": [
        {
          "internalType": "address",
          "name": "",
          "type": "address"
        }
      ],
      "stateMutability": "view",
      "type": "function"
    },
    {
      "inputs": [
        {
          "internalType": "address",
          "name": "",
          "type": "address"
        },
        {
          "internalType": "uint256",
          "name": "",
          "type": "uint256"
        }
      ],
      "name": "processedNonces",
      "outputs": [
        {
          "internalType": "bool",
          "name": "",
          "type": "bool"
        }
      ],
      "stateMutability": "view",
      "type": "function"
    },
    {
      "inputs": [],
      "name": "renounceOwnership",
      "outputs": [],
      "stateMutability": "nonpayable",
      "type": "function"
    },
    {
      "inputs": [
        {
          "internalType": "address",
          "name": "newOwner",
          "type": "address"
        }
      ],
      "name": "transferOwnership",
      "outputs": [],
      "stateMutability": "nonpayable",
      "type": "function"
    },
    {
      "inputs": [
        {
          "internalType": "uint256",
          "name": "amount",
          "type": "uint256"
        },
        {
          "internalType": "address",
          "name": "receipient",
          "type": "address"
        },
        {
          "internalType": "string",
          "name": "deroAddress",
          "type": "string"
        }
      ],
      "name": "withdraw",
      "outputs": [],
      "stateMutability": "nonpayable",
      "type": "function"
    }
  ],
  "bytecode": "0x60806040523480156200001157600080fd5b506040516200120f3803806200120f8339818101604052810190620000379190620001d5565b620000576200004b6200009f60201b60201c565b620000a760201b60201c565b80600160006101000a81548173ffffffffffffffffffffffffffffffffffffffff021916908373ffffffffffffffffffffffffffffffffffffffff1602179055505062000207565b600033905090565b60008060009054906101000a900473ffffffffffffffffffffffffffffffffffffffff169050816000806101000a81548173ffffffffffffffffffffffffffffffffffffffff021916908373ffffffffffffffffffffffffffffffffffffffff1602179055508173ffffffffffffffffffffffffffffffffffffffff168173ffffffffffffffffffffffffffffffffffffffff167f8be0079c531659141344cd1fd0a4f28419497f9722a3daafe3b4186f6b6457e060405160405180910390a35050565b600080fd5b600073ffffffffffffffffffffffffffffffffffffffff82169050919050565b60006200019d8262000170565b9050919050565b620001af8162000190565b8114620001bb57600080fd5b50565b600081519050620001cf81620001a4565b92915050565b600060208284031215620001ee57620001ed6200016b565b5b6000620001fe84828501620001be565b91505092915050565b610ff880620002176000396000f3fe6080604052600436106100555760003560e01c8063715018a61461005a5780637cc70240146100715780638da5cb5b146100ae578063f108a7d2146100d9578063f1215d2514610102578063f2fde38b1461011e575b600080fd5b34801561006657600080fd5b5061006f610147565b005b34801561007d57600080fd5b5061009860048036038101906100939190610850565b61015b565b6040516100a591906108ab565b60405180910390f35b3480156100ba57600080fd5b506100c361018a565b6040516100d091906108d5565b60405180910390f35b3480156100e557600080fd5b5061010060048036038101906100fb9190610955565b6101b3565b005b61011c60048036038101906101179190610b0a565b610376565b005b34801561012a57600080fd5b5061014560048036038101906101409190610b66565b6105b6565b005b61014f61063a565b61015960006106b8565b565b60046020528160005260406000206020528060005260406000206000915091509054906101000a900460ff1681565b60008060009054906101000a900473ffffffffffffffffffffffffffffffffffffffff16905090565b6101bb61063a565b600073ffffffffffffffffffffffffffffffffffffffff168373ffffffffffffffffffffffffffffffffffffffff16141561022b576040517f08c379a000000000000000000000000000000000000000000000000000000000815260040161022290610bf0565b60405180910390fd5b6000841161026e576040517f08c379a000000000000000000000000000000000000000000000000000000000815260040161026590610c5c565b60405180910390fd5b600160009054906101000a900473ffffffffffffffffffffffffffffffffffffffff1673ffffffffffffffffffffffffffffffffffffffff1663a9059cbb84866040518363ffffffff1660e01b81526004016102cb929190610c8b565b602060405180830381600087803b1580156102e557600080fd5b505af11580156102f9573d6000803e3d6000fd5b505050506040513d601f19601f8201168201806040525081019061031d9190610ce0565b508273ffffffffffffffffffffffffffffffffffffffff167f60a64b55a87ddc551866192a09b7031fe80dd6e57b58adefdb373a9f7f055f3385848460405161036893929190610d3a565b60405180910390a250505050565b600073ffffffffffffffffffffffffffffffffffffffff163373ffffffffffffffffffffffffffffffffffffffff1614156103e6576040517f08c379a00000000000000000000000000000000000000000000000000000000081526004016103dd90610db8565b60405180910390fd5b60008211610429576040517f08c379a000000000000000000000000000000000000000000000000000000000815260040161042090610c5c565b60405180910390fd5b610433600361077c565b6001600460003373ffffffffffffffffffffffffffffffffffffffff1673ffffffffffffffffffffffffffffffffffffffff16815260200190815260200160002060006104806003610792565b815260200190815260200160002060006101000a81548160ff021916908315150217905550600160009054906101000a900473ffffffffffffffffffffffffffffffffffffffff1673ffffffffffffffffffffffffffffffffffffffff166323b872dd3330856040518463ffffffff1660e01b815260040161050493929190610dd8565b602060405180830381600087803b15801561051e57600080fd5b505af1158015610532573d6000803e3d6000fd5b505050506040513d601f19601f820116820180604052508101906105569190610ce0565b503373ffffffffffffffffffffffffffffffffffffffff167fc3e7b26244f37ad8e358393dbc82881ada73f132a6b54c7624e72a6792f797688361059a6003610792565b846040516105aa93929190610e86565b60405180910390a25050565b6105be61063a565b600073ffffffffffffffffffffffffffffffffffffffff168173ffffffffffffffffffffffffffffffffffffffff16141561062e576040517f08c379a000000000000000000000000000000000000000000000000000000000815260040161062590610f36565b60405180910390fd5b610637816106b8565b50565b6106426107a0565b73ffffffffffffffffffffffffffffffffffffffff1661066061018a565b73ffffffffffffffffffffffffffffffffffffffff16146106b6576040517f08c379a00000000000000000000000000000000000000000000000000000000081526004016106ad90610fa2565b60405180910390fd5b565b60008060009054906101000a900473ffffffffffffffffffffffffffffffffffffffff169050816000806101000a81548173ffffffffffffffffffffffffffffffffffffffff021916908373ffffffffffffffffffffffffffffffffffffffff1602179055508173ffffffffffffffffffffffffffffffffffffffff168173ffffffffffffffffffffffffffffffffffffffff167f8be0079c531659141344cd1fd0a4f28419497f9722a3daafe3b4186f6b6457e060405160405180910390a35050565b6001816000016000828254019250508190555050565b600081600001549050919050565b600033905090565b6000604051905090565b600080fd5b600080fd5b600073ffffffffffffffffffffffffffffffffffffffff82169050919050565b60006107e7826107bc565b9050919050565b6107f7816107dc565b811461080257600080fd5b50565b600081359050610814816107ee565b92915050565b6000819050919050565b61082d8161081a565b811461083857600080fd5b50565b60008135905061084a81610824565b92915050565b60008060408385031215610867576108666107b2565b5b600061087585828601610805565b92505060206108868582860161083b565b9150509250929050565b60008115159050919050565b6108a581610890565b82525050565b60006020820190506108c0600083018461089c565b92915050565b6108cf816107dc565b82525050565b60006020820190506108ea60008301846108c6565b92915050565b600080fd5b600080fd5b600080fd5b60008083601f840112610915576109146108f0565b5b8235905067ffffffffffffffff811115610932576109316108f5565b5b60208301915083600182028301111561094e5761094d6108fa565b5b9250929050565b6000806000806060858703121561096f5761096e6107b2565b5b600061097d8782880161083b565b945050602061098e87828801610805565b935050604085013567ffffffffffffffff8111156109af576109ae6107b7565b5b6109bb878288016108ff565b925092505092959194509250565b600080fd5b6000601f19601f8301169050919050565b7f4e487b7100000000000000000000000000000000000000000000000000000000600052604160045260246000fd5b610a17826109ce565b810181811067ffffffffffffffff82111715610a3657610a356109df565b5b80604052505050565b6000610a496107a8565b9050610a558282610a0e565b919050565b600067ffffffffffffffff821115610a7557610a746109df565b5b610a7e826109ce565b9050602081019050919050565b82818337600083830152505050565b6000610aad610aa884610a5a565b610a3f565b905082815260208101848484011115610ac957610ac86109c9565b5b610ad4848285610a8b565b509392505050565b600082601f830112610af157610af06108f0565b5b8135610b01848260208601610a9a565b91505092915050565b60008060408385031215610b2157610b206107b2565b5b6000610b2f8582860161083b565b925050602083013567ffffffffffffffff811115610b5057610b4f6107b7565b5b610b5c85828601610adc565b9150509250929050565b600060208284031215610b7c57610b7b6107b2565b5b6000610b8a84828501610805565b91505092915050565b600082825260208201905092915050565b7f496e76616c696420697373756572206164647265737300000000000000000000600082015250565b6000610bda601683610b93565b9150610be582610ba4565b602082019050919050565b60006020820190508181036000830152610c0981610bcd565b9050919050565b7f416d6f756e74206e6f7420656e6f756768000000000000000000000000000000600082015250565b6000610c46601183610b93565b9150610c5182610c10565b602082019050919050565b60006020820190508181036000830152610c7581610c39565b9050919050565b610c858161081a565b82525050565b6000604082019050610ca060008301856108c6565b610cad6020830184610c7c565b9392505050565b610cbd81610890565b8114610cc857600080fd5b50565b600081519050610cda81610cb4565b92915050565b600060208284031215610cf657610cf56107b2565b5b6000610d0484828501610ccb565b91505092915050565b6000610d198385610b93565b9350610d26838584610a8b565b610d2f836109ce565b840190509392505050565b6000604082019050610d4f6000830186610c7c565b8181036020830152610d62818486610d0d565b9050949350505050565b7f496e76616c696420616464726573730000000000000000000000000000000000600082015250565b6000610da2600f83610b93565b9150610dad82610d6c565b602082019050919050565b60006020820190508181036000830152610dd181610d95565b9050919050565b6000606082019050610ded60008301866108c6565b610dfa60208301856108c6565b610e076040830184610c7c565b949350505050565b600081519050919050565b60005b83811015610e38578082015181840152602081019050610e1d565b83811115610e47576000848401525b50505050565b6000610e5882610e0f565b610e628185610b93565b9350610e72818560208601610e1a565b610e7b816109ce565b840191505092915050565b6000606082019050610e9b6000830186610c7c565b610ea86020830185610c7c565b8181036040830152610eba8184610e4d565b9050949350505050565b7f4f776e61626c653a206e6577206f776e657220697320746865207a65726f206160008201527f6464726573730000000000000000000000000000000000000000000000000000602082015250565b6000610f20602683610b93565b9150610f2b82610ec4565b604082019050919050565b60006020820190508181036000830152610f4f81610f13565b9050919050565b7f4f776e61626c653a2063616c6c6572206973206e6f7420746865206f776e6572600082015250565b6000610f8c602083610b93565b9150610f9782610f56565b602082019050919050565b60006020820190508181036000830152610fbb81610f7f565b905091905056fea264697066735822122045df7ebf0b9903c8f8b2550fdf540f5e1bfb8809edb8a539baf6a01ab6a1d88264736f6c63430008090033",
  "linkReferences": {},
  "deployedLinkReferences": {}
}