{
  "address": "0x1a16887743ccec528F6c6d0B89CEDD1cf1D12281",
  "_format": "hh-sol-artifact-1",
  "contractName": "EthBridge",
  "sourceName": "contracts/EthBridge.sol",
  "abi": [
    {
      "inputs": [
        {
          "internalType": "address",
          "name": "_tokenAddress",
          "type": "address"
        }
      ],
      "stateMutability": "nonpayable",
      "type": "constructor"
    },
    {
      "anonymous": false,
      "inputs": [
        {
          "indexed": true,
          "internalType": "address",
          "name": "_sender",
          "type": "address"
        },
        {
          "indexed": false,
          "internalType": "uint256",
          "name": "amount",
          "type": "uint256"
        },
        {
          "indexed": false,
          "internalType": "uint256",
          "name": "nonce",
          "type": "uint256"
        },
        {
          "indexed": false,
          "internalType": "string",
          "name": "deroAddress",
          "type": "string"
        }
      ],
      "name": "Deposit",
      "type": "event"
    },
    {
      "anonymous": false,
      "inputs": [
        {
          "indexed": true,
          "internalType": "address",
          "name": "previousOwner",
          "type": "address"
        },
        {
          "indexed": true,
          "internalType": "address",
          "name": "newOwner",
          "type": "address"
        }
      ],
      "name": "OwnershipTransferred",
      "type": "event"
    },
    {
      "anonymous": false,
      "inputs": [
        {
          "indexed": true,
          "internalType": "address",
          "name": "_sender",
          "type": "address"
        },
        {
          "indexed": false,
          "internalType": "uint256",
          "name": "amount",
          "type": "uint256"
        },
        {
          "indexed": false,
          "internalType": "string",
          "name": "deroAddress",
          "type": "string"
        }
      ],
      "name": "WithdrawalProcessed",
      "type": "event"
    },
    {
      "inputs": [
        {
          "internalType": "string",
          "name": "deroAddress",
          "type": "string"
        }
      ],
      "name": "changeAddressMap",
      "outputs": [],
      "stateMutability": "nonpayable",
      "type": "function"
    },
    {
      "inputs": [
        {
          "internalType": "uint256",
          "name": "amount",
          "type": "uint256"
        },
        {
          "internalType": "string",
          "name": "deroAddress",
          "type": "string"
        }
      ],
      "name": "deposit",
      "outputs": [],
      "stateMutability": "payable",
      "type": "function"
    },
    {
      "inputs": [
        {
          "internalType": "address",
          "name": "_address",
          "type": "address"
        }
      ],
      "name": "getDeroAddressOf",
      "outputs": [
        {
          "internalType": "string",
          "name": "",
          "type": "string"
        }
      ],
      "stateMutability": "view",
      "type": "function"
    },
    {
      "inputs": [
        {
          "internalType": "string",
          "name": "deroAddress",
          "type": "string"
        }
      ],
      "name": "getEthAddressOf",
      "outputs": [
        {
          "internalType": "address",
          "name": "",
          "type": "address"
        }
      ],
      "stateMutability": "view",
      "type": "function"
    },
    {
      "inputs": [],
      "name": "owner",
      "outputs": [
        {
          "internalType": "address",
          "name": "",
          "type": "address"
        }
      ],
      "stateMutability": "view",
      "type": "function"
    },
    {
      "inputs": [
        {
          "internalType": "address",
          "name": "",
          "type": "address"
        },
        {
          "internalType": "uint256",
          "name": "",
          "type": "uint256"
        }
      ],
      "name": "processedNonces",
      "outputs": [
        {
          "internalType": "bool",
          "name": "",
          "type": "bool"
        }
      ],
      "stateMutability": "view",
      "type": "function"
    },
    {
      "inputs": [],
      "name": "renounceOwnership",
      "outputs": [],
      "stateMutability": "nonpayable",
      "type": "function"
    },
    {
      "inputs": [
        {
          "internalType": "address",
          "name": "newOwner",
          "type": "address"
        }
      ],
      "name": "transferOwnership",
      "outputs": [],
      "stateMutability": "nonpayable",
      "type": "function"
    },
    {
      "inputs": [
        {
          "internalType": "uint256",
          "name": "amount",
          "type": "uint256"
        },
        {
          "internalType": "string",
          "name": "deroAddress",
          "type": "string"
        }
      ],
      "name": "withdraw",
      "outputs": [],
      "stateMutability": "nonpayable",
      "type": "function"
    }
  ],
  "bytecode": "0x60806040523480156200001157600080fd5b5060405162001581380380620015818339818101604052810190620000379190620001d5565b620000576200004b6200009f60201b60201c565b620000a760201b60201c565b80600160006101000a81548173ffffffffffffffffffffffffffffffffffffffff021916908373ffffffffffffffffffffffffffffffffffffffff1602179055505062000207565b600033905090565b60008060009054906101000a900473ffffffffffffffffffffffffffffffffffffffff169050816000806101000a81548173ffffffffffffffffffffffffffffffffffffffff021916908373ffffffffffffffffffffffffffffffffffffffff1602179055508173ffffffffffffffffffffffffffffffffffffffff168173ffffffffffffffffffffffffffffffffffffffff167f8be0079c531659141344cd1fd0a4f28419497f9722a3daafe3b4186f6b6457e060405160405180910390a35050565b600080fd5b600073ffffffffffffffffffffffffffffffffffffffff82169050919050565b60006200019d8262000170565b9050919050565b620001af8162000190565b8114620001bb57600080fd5b50565b600081519050620001cf81620001a4565b92915050565b600060208284031215620001ee57620001ed6200016b565b5b6000620001fe84828501620001be565b91505092915050565b61136a80620002176000396000f3fe6080604052600436106100865760003560e01c8063cbcac83c11610059578063cbcac83c14610147578063dc048cf214610170578063f1215d2514610199578063f2fde38b146101b5578063f5e51fec146101de57610086565b806345baf0c41461008b578063715018a6146100c85780637cc70240146100df5780638da5cb5b1461011c575b600080fd5b34801561009757600080fd5b506100b260048036038101906100ad9190610bdc565b61021b565b6040516100bf9190610ca2565b60405180910390f35b3480156100d457600080fd5b506100dd6102f4565b005b3480156100eb57600080fd5b5061010660048036038101906101019190610cfa565b610308565b6040516101139190610d55565b60405180910390f35b34801561012857600080fd5b50610131610337565b60405161013e9190610d7f565b60405180910390f35b34801561015357600080fd5b5061016e60048036038101906101699190610ecf565b610360565b005b34801561017c57600080fd5b5061019760048036038101906101929190610f18565b610414565b005b6101b360048036038101906101ae9190610f18565b61059c565b005b3480156101c157600080fd5b506101dc60048036038101906101d79190610bdc565b61088d565b005b3480156101ea57600080fd5b5061020560048036038101906102009190610ecf565b610911565b6040516102129190610d7f565b60405180910390f35b6060610225610959565b600560008373ffffffffffffffffffffffffffffffffffffffff1673ffffffffffffffffffffffffffffffffffffffff168152602001908152602001600020805461026f90610fa3565b80601f016020809104026020016040519081016040528092919081815260200182805461029b90610fa3565b80156102e85780601f106102bd576101008083540402835291602001916102e8565b820191906000526020600020905b8154815290600101906020018083116102cb57829003601f168201915b50505050509050919050565b6102fc610959565b61030660006109d7565b565b60046020528160005260406000206020528060005260406000206000915091509054906101000a900460ff1681565b60008060009054906101000a900473ffffffffffffffffffffffffffffffffffffffff16905090565b80600560003373ffffffffffffffffffffffffffffffffffffffff1673ffffffffffffffffffffffffffffffffffffffff16815260200190815260200160002090805190602001906103b3929190610ac7565b50336006826040516103c59190611011565b908152602001604051809103902060006101000a81548173ffffffffffffffffffffffffffffffffffffffff021916908373ffffffffffffffffffffffffffffffffffffffff16021790555050565b61041c610959565b600160009054906101000a900473ffffffffffffffffffffffffffffffffffffffff1673ffffffffffffffffffffffffffffffffffffffff1663a9059cbb60068360405161046a9190611011565b908152602001604051809103902060009054906101000a900473ffffffffffffffffffffffffffffffffffffffff16846040518363ffffffff1660e01b81526004016104b7929190611037565b602060405180830381600087803b1580156104d157600080fd5b505af11580156104e5573d6000803e3d6000fd5b505050506040513d601f19601f82011682018060405250810190610509919061108c565b5060068160405161051a9190611011565b908152602001604051809103902060009054906101000a900473ffffffffffffffffffffffffffffffffffffffff1673ffffffffffffffffffffffffffffffffffffffff167f60a64b55a87ddc551866192a09b7031fe80dd6e57b58adefdb373a9f7f055f3383836040516105909291906110b9565b60405180910390a25050565b600073ffffffffffffffffffffffffffffffffffffffff163373ffffffffffffffffffffffffffffffffffffffff16141561060c576040517f08c379a000000000000000000000000000000000000000000000000000000000815260040161060390611135565b60405180910390fd5b6000821161064f576040517f08c379a0000000000000000000000000000000000000000000000000000000008152600401610646906111a1565b60405180910390fd5b6106596003610a9b565b6001600460003373ffffffffffffffffffffffffffffffffffffffff1673ffffffffffffffffffffffffffffffffffffffff16815260200190815260200160002060006106a66003610ab1565b815260200190815260200160002060006101000a81548160ff02191690831515021790555080600560003373ffffffffffffffffffffffffffffffffffffffff1673ffffffffffffffffffffffffffffffffffffffff168152602001908152602001600020908051906020019061071e929190610ac7565b50336006826040516107309190611011565b908152602001604051809103902060006101000a81548173ffffffffffffffffffffffffffffffffffffffff021916908373ffffffffffffffffffffffffffffffffffffffff160217905550600160009054906101000a900473ffffffffffffffffffffffffffffffffffffffff1673ffffffffffffffffffffffffffffffffffffffff166323b872dd3330856040518463ffffffff1660e01b81526004016107db939291906111c1565b602060405180830381600087803b1580156107f557600080fd5b505af1158015610809573d6000803e3d6000fd5b505050506040513d601f19601f8201168201806040525081019061082d919061108c565b503373ffffffffffffffffffffffffffffffffffffffff167fc3e7b26244f37ad8e358393dbc82881ada73f132a6b54c7624e72a6792f79768836108716003610ab1565b84604051610881939291906111f8565b60405180910390a25050565b610895610959565b600073ffffffffffffffffffffffffffffffffffffffff168173ffffffffffffffffffffffffffffffffffffffff161415610905576040517f08c379a00000000000000000000000000000000000000000000000000000000081526004016108fc906112a8565b60405180910390fd5b61090e816109d7565b50565b60006006826040516109239190611011565b908152602001604051809103902060009054906101000a900473ffffffffffffffffffffffffffffffffffffffff169050919050565b610961610abf565b73ffffffffffffffffffffffffffffffffffffffff1661097f610337565b73ffffffffffffffffffffffffffffffffffffffff16146109d5576040517f08c379a00000000000000000000000000000000000000000000000000000000081526004016109cc90611314565b60405180910390fd5b565b60008060009054906101000a900473ffffffffffffffffffffffffffffffffffffffff169050816000806101000a81548173ffffffffffffffffffffffffffffffffffffffff021916908373ffffffffffffffffffffffffffffffffffffffff1602179055508173ffffffffffffffffffffffffffffffffffffffff168173ffffffffffffffffffffffffffffffffffffffff167f8be0079c531659141344cd1fd0a4f28419497f9722a3daafe3b4186f6b6457e060405160405180910390a35050565b6001816000016000828254019250508190555050565b600081600001549050919050565b600033905090565b828054610ad390610fa3565b90600052602060002090601f016020900481019282610af55760008555610b3c565b82601f10610b0e57805160ff1916838001178555610b3c565b82800160010185558215610b3c579182015b82811115610b3b578251825591602001919060010190610b20565b5b509050610b499190610b4d565b5090565b5b80821115610b66576000816000905550600101610b4e565b5090565b6000604051905090565b600080fd5b600080fd5b600073ffffffffffffffffffffffffffffffffffffffff82169050919050565b6000610ba982610b7e565b9050919050565b610bb981610b9e565b8114610bc457600080fd5b50565b600081359050610bd681610bb0565b92915050565b600060208284031215610bf257610bf1610b74565b5b6000610c0084828501610bc7565b91505092915050565b600081519050919050565b600082825260208201905092915050565b60005b83811015610c43578082015181840152602081019050610c28565b83811115610c52576000848401525b50505050565b6000601f19601f8301169050919050565b6000610c7482610c09565b610c7e8185610c14565b9350610c8e818560208601610c25565b610c9781610c58565b840191505092915050565b60006020820190508181036000830152610cbc8184610c69565b905092915050565b6000819050919050565b610cd781610cc4565b8114610ce257600080fd5b50565b600081359050610cf481610cce565b92915050565b60008060408385031215610d1157610d10610b74565b5b6000610d1f85828601610bc7565b9250506020610d3085828601610ce5565b9150509250929050565b60008115159050919050565b610d4f81610d3a565b82525050565b6000602082019050610d6a6000830184610d46565b92915050565b610d7981610b9e565b82525050565b6000602082019050610d946000830184610d70565b92915050565b600080fd5b600080fd5b7f4e487b7100000000000000000000000000000000000000000000000000000000600052604160045260246000fd5b610ddc82610c58565b810181811067ffffffffffffffff82111715610dfb57610dfa610da4565b5b80604052505050565b6000610e0e610b6a565b9050610e1a8282610dd3565b919050565b600067ffffffffffffffff821115610e3a57610e39610da4565b5b610e4382610c58565b9050602081019050919050565b82818337600083830152505050565b6000610e72610e6d84610e1f565b610e04565b905082815260208101848484011115610e8e57610e8d610d9f565b5b610e99848285610e50565b509392505050565b600082601f830112610eb657610eb5610d9a565b5b8135610ec6848260208601610e5f565b91505092915050565b600060208284031215610ee557610ee4610b74565b5b600082013567ffffffffffffffff811115610f0357610f02610b79565b5b610f0f84828501610ea1565b91505092915050565b60008060408385031215610f2f57610f2e610b74565b5b6000610f3d85828601610ce5565b925050602083013567ffffffffffffffff811115610f5e57610f5d610b79565b5b610f6a85828601610ea1565b9150509250929050565b7f4e487b7100000000000000000000000000000000000000000000000000000000600052602260045260246000fd5b60006002820490506001821680610fbb57607f821691505b60208210811415610fcf57610fce610f74565b5b50919050565b600081905092915050565b6000610feb82610c09565b610ff58185610fd5565b9350611005818560208601610c25565b80840191505092915050565b600061101d8284610fe0565b915081905092915050565b61103181610cc4565b82525050565b600060408201905061104c6000830185610d70565b6110596020830184611028565b9392505050565b61106981610d3a565b811461107457600080fd5b50565b60008151905061108681611060565b92915050565b6000602082840312156110a2576110a1610b74565b5b60006110b084828501611077565b91505092915050565b60006040820190506110ce6000830185611028565b81810360208301526110e08184610c69565b90509392505050565b7f496e76616c696420616464726573730000000000000000000000000000000000600082015250565b600061111f600f83610c14565b915061112a826110e9565b602082019050919050565b6000602082019050818103600083015261114e81611112565b9050919050565b7f416d6f756e74206e6f7420656e6f756768000000000000000000000000000000600082015250565b600061118b601183610c14565b915061119682611155565b602082019050919050565b600060208201905081810360008301526111ba8161117e565b9050919050565b60006060820190506111d66000830186610d70565b6111e36020830185610d70565b6111f06040830184611028565b949350505050565b600060608201905061120d6000830186611028565b61121a6020830185611028565b818103604083015261122c8184610c69565b9050949350505050565b7f4f776e61626c653a206e6577206f776e657220697320746865207a65726f206160008201527f6464726573730000000000000000000000000000000000000000000000000000602082015250565b6000611292602683610c14565b915061129d82611236565b604082019050919050565b600060208201905081810360008301526112c181611285565b9050919050565b7f4f776e61626c653a2063616c6c6572206973206e6f7420746865206f776e6572600082015250565b60006112fe602083610c14565b9150611309826112c8565b602082019050919050565b6000602082019050818103600083015261132d816112f1565b905091905056fea26469706673582212203add63d83e45a1cc4af50fe5d37236c242bb4477d9a2673f1932bf83cc4e4aaf64736f6c63430008090033",
  "linkReferences": {},
  "deployedLinkReferences": {}
}